:100000000C942A000C9412010C943B010C94640192
:100010000C9447000C9447000C9447000C94470044
:100020000C9447000C9447000C9447000C94470034
:100030000C9447000C9447000C9447000C94470024
:100040000C9447000C9447000C9447000C94470014
:100050000C94470011241FBECFE5D8E0DEBFCDBF12
:1000600010E0A0E6B0E0EAE0FDE002C005900D92ED
:10007000A03AB107D9F720E0A0EAB0E001C01D9294
:10008000A73AB207E1F70E9417040C9483060C9478
:1000900000008091A0008F5F8093A00008950895D4
:1000A000413091F018F0423029F10895E82FF0E046
:1000B000EE0FFF1FE857FF4F0190F081E02D808188
:1000C000609568236083089590E0880F991FFC0174
:1000D000E857FF4F0190F081E02D3081262F2095C9
:1000E0002323208380589F4FDC01ED91FC91808178
:1000F000682BE8CFE82FF0E0EE0FFF1FE857FF4F27
:100100000190F081E02DF3CF442319F0413079F0D4
:100110000895E82FF0E0EE0FFF1FE058FF4F019029
:10012000F081E02D80816095682360830895E82F39
:10013000F0E0EE0FFF1FE058FF4F0190F081E02D3F
:100140008081682BF2CFE82FF0E0EE0FFF1FE05820
:10015000FF4F0190F081E02D808168276083089532
:10016000E82FF0E0EE0FFF1FE858FF4F0190F081FD
:10017000E02D8081682319F4FA011082089581E04E
:10018000FA0180830895813041F018F0823041F007
:1001900008958BB780648BBF08958BB78068FBCFC1
:1001A0008BB78062F8CF813041F018F0823041F097
:1001B00008958BB78F7B8BBF08958BB78F77FBCF5D
:1001C0008BB78F7DF8CF813079F018F08230D9F07D
:1001D000089585B78C7F85BF85B7682B65BF509321
:1001E000A6004093A500089585B7837F85BF85B796
:1001F00094E0699FB0011124682B65BF5093A4005F
:100200004093A3000895633041F484B7806484BFB1
:100210005093A2004093A10008956230C9F784B7BB
:100220008F7BF5CF1F920F920FB60F9211242F9351
:100230003F934F935F936F937F938F939F93AF936E
:10024000BF93EF93FF93E091A500F091A600309744
:1002500009F00995FF91EF91BF91AF919F918F9117
:100260007F916F915F914F913F912F910F900FBEB2
:100270000F901F9018951F920F920FB60F92112496
:100280002F933F934F935F936F937F938F939F939E
:10029000AF93BF93EF93FF93E091A300F091A4007D
:1002A000309709F00995FF91EF91BF91AF919F9120
:1002B0008F917F916F915F914F913F912F910F900F
:1002C0000FBE0F901F9018951F920F920FB60F92AE
:1002D00011242F933F934F935F936F937F938F934B
:1002E0009F93AF93BF93EF93FF93E091A100F091A1
:1002F000A200309709F00995FF91EF91BF91AF915E
:100300009F918F917F916F915F914F913F912F912D
:100310000F900FBE0F901F901895813049F018F084
:10032000823049F0089542E064E082E00C9450008D
:1003300042E060E8FACF42E068E083E0F7CF813046
:1003400049F018F0823049F0089541E064E082E01D
:100350000C94840041E060E8FACF41E068E083E07B
:10036000F7CF813049F018F0823049F0089540E02D
:1003700064E082E00C94840040E060E8FACF40E062
:1003800068E083E0F7CF813041F018F0823039F037
:10039000089564E082E00C94A30060E8FBCF68E07D
:1003A00083E0F9CF813049F018F0823051F00895A0
:1003B00040E061E081E00C94500040E060E483E0C4
:1003C000FACF40E064E0FBCFAB01813041F018F0A0
:1003D000823041F0089561E081E00C94B00060E467
:1003E00083E0FBCF64E0FCCFCF93C82F42E060E115
:1003F00080E00E94500042E060E280E00E945000F5
:1004000042E060E480E00E94500042E060E880E06A
:100410000E945000CC2321F0C13041F0CF910895CB
:1004200042E064E081E0CF910C94500042E062E051
:10043000F9CF882319F0813031F0089541E064E06C
:1004400081E00C94840041E062E0FACF882319F047
:10045000813031F0089540E064E081E00C94840044
:1004600040E062E0FACFCF938A30F0F4C82F482FF3
:10047000417060E180E00E948400C1FB442740F9A4
:1004800060E280E00E948400C2FB442740F960E4FF
:1004900080E00E9484004C2F46954695469560E882
:1004A00080E0CF910C948400CF910895CF93C82F12
:1004B00040E062E081E00E94840040E064E081E08E
:1004C0000E948400C4FB442740F960E180E00E9460
:1004D0008400C5FB442740F960E280E00E9484006C
:1004E000C6FB442740F960E480E00E9484004C2F62
:1004F000441F4427441F60E880E00E94840040E0DD
:1005000068E081E00E94840087EC90E00197F1F7B9
:1005100000C0000041E068E081E00E9484004C2FB0
:10052000417060E180E00E948400C1FB442740F9F3
:1005300060E280E00E948400C2FB442740F960E44E
:1005400080E00E948400C3FB442740F960E880E01B
:100550000E94840040E068E081E00E94840087EC13
:1005600090E00197F1F700C0000041E068E081E011
:10057000CF910C948400CF93C82F41E062E081E0DA
:100580000E94840040E064E081E00E948400C4FB9B
:10059000442740F960E180E00E948400C5FB4427C5
:1005A00040F960E280E00E948400C6FB442740F9E5
:1005B00060E480E00E9484004C2F441F4427441FC5
:1005C00060E880E00E94840040E068E081E00E94F2
:1005D000840087EC90E00197F1F700C0000041E053
:1005E00068E081E00E9484004C2F417060E180E06F
:1005F0000E948400C1FB442740F960E280E00E9431
:100600008400C2FB442740F960E480E00E9484003B
:10061000C3FB442740F960E880E00E94840040E08A
:1006200068E081E00E94840087EC90E00197F1F798
:1006300000C0000041E068E081E0CF910C948400AC
:1006400042E06EE081E00E94500042E060EF80E016
:100650000E94500041E068E081E00E9484002FEF9A
:1006600080E792E0215080409040E1F700C0000018
:1006700040E060E180E00E94840041E060E280E0D0
:100680000E94840040E060E480E00E94840040E03A
:1006900060E880E00E94840040E068E081E00E9421
:1006A000840087EC90E00197F1F700C0000041E082
:1006B00068E081E00E9484008CE20E9456028FE98B
:1006C0009FE00197F1F700C000008FE00E94560202
:1006D0008FE99FE00197F1F700C0000081E00E94E0
:1006E00056028FE39FE10197F1F700C0000086E01A
:1006F0000E9456028FE99FE00197F1F700C00000C9
:1007000008950C94BB02CF93DF93EC018991811182
:1007100003C0DF91CF9108950E94BB02F7CF6068BC
:10072000862B0C94560241E06FE082E00E9450005C
:1007300042E060EF82E00E94500041E060EF82E022
:100740000C9484006F927F928F929F92AF92BF928F
:10075000CF92DF92EF92FF920F931F93CF93DF938D
:100760001F92CDB7DEB76C01FC011082F12CE12C99
:1007700090E1692E712C88248394912C53010E2CC6
:1007800001C0AA0C0A94EAF740E06A2D82E00E94B8
:10079000840010E000E0AE014F5F5F4FB401002E17
:1007A00001C0660F0A94EAF782E00E94B0008981D6
:1007B000811136C0FFEF24E38CE0F15020408040EF
:1007C000E1F700C00000F801EE0FFF1FEE0FFF1F62
:1007D000E057FF4FEE0DFF1D8081F601808341E061
:1007E0006A2D82E00E948400F6018081811108C098
:1007F000FFEFEF1AFF0A24E0E216F10409F0BECF82
:100800000F90DF91CF911F910F91FF90EF90DF90AC
:10081000CF90BF90AF909F908F907F906F900895F2
:100820000F5F1F4F0430110509F0B5CFD8CF80E01E
:100830000E948D0181E00E948D0182E00E948D0165
:1008400082E00E94D20180E00E94C30049E450E0AF
:1008500063E080E00E94E3007894C0E9D1E080E0AA
:100860000E949F01E091A00084E0E89FF001112424
:10087000E05AFF4F60817181828193810E945F0500
:100880004B015C0120E030E04AE755E40E94EE05B0
:100890006B017C0120E030E040E85FE30E942B0523
:1008A00087FDB4C020E03FEF4FE757E4C701B60132
:1008B0000E94E90518160CF0A1C020E030E040E2EB
:1008C00051E4C501B4010E94EE050E943005611596
:1008D000710509F08DC080E00E94B10181E00E94A5
:1008E0009F01E091A00084E0E89FF0011124E05A0C
:1008F000FF4F60817181828193810E945F054B016E
:100900005C0120E030E04AE755E40E94EE056B010F
:100910007C0120E030E040E85FE30E942B0587FD8A
:1009200086C020E03FEF4FE757E4C701B6010E94C1
:10093000E90518160CF073C020E030E040E251E405
:10094000C501B4010E94EE050E94300561157105D4
:1009500009F05FC081E00E94B10182E00E949F0126
:10096000E091A00084E0E89FF0011124E05AFF4FDD
:1009700060817181828193810E945F054B015C01DE
:1009800020E030E04AE755E40E94EE056B017C016F
:1009900020E030E040E85FE30E942B0587FD58C06F
:1009A00020E03FEF4FE757E4C701B6010E94E90599
:1009B00018160CF045C020E030E040E251E4C501DB
:1009C000B4010E94EE050E9430056115710591F594
:1009D00082E00E94B1018091A000863009F03FCFF3
:1009E00080E593ECFE013197F1F70197D9F737CF06
:1009F000CE010197F1F76150710969CFC701B601C6
:100A00000E943005CB010197F1F765CF61E070E0FE
:100A1000F9CFCE010197F1F76150710997CFC70166
:100A2000B6010E943005CB010197F1F793CF61E049
:100A300070E0F9CFCE010197F1F761507109C5CF90
:100A4000C701B6010E943005CB010197F1F7C0CF75
:100A500061E070E0F9CF0E949C0508F481E0089500
:100A60000E94C80588F09F5798F0B92F9927B75171
:100A7000B0F0E1F0660F771F881F991F1AF0BA9542
:100A8000C9F714C0B13091F00E94E205B1E00895B9
:100A90000C94E205672F782F8827B85F39F0B93FAB
:100AA000CCF3869577956795B395D9F73EF49095F5
:100AB0008095709561957F4F8F4F9F4F0895E89473
:100AC00009C097FB3EF490958095709561957F4F96
:100AD0008F4F9F4F9923A9F0F92F96E9BB27939544
:100AE000F695879577956795B795F111F8CFFAF454
:100AF000BB0F11F460FF1BC06F5F7F4F8F4F9F4F85
:100B000016C0882311F096E911C0772321F09EE8E2
:100B1000872F762F05C0662371F096E8862F70E048
:100B200060E02AF09A95660F771F881FDAF7880F22
:100B30009695879597F90895990F0008550FAA0B78
:100B4000E0E8FEEF16161706E807F907C0F01216E0
:100B50001306E407F50798F0621B730B840B950BE3
:100B600039F40A2661F0232B242B252B21F4089538
:100B70000A2609F4A140A6958FEF811D811D0895D5
:100B800057FD9058440F551F59F05F3F71F047953E
:100B9000880F97FB991F61F09F3F79F08795089523
:100BA000121613061406551FF2CF4695F1DF08C042
:100BB000161617061806991FF1CF8695710561055F
:100BC00008940895E894BB2766277727CB0197F907
:100BD00008950E949C0508F48FEF08950E94010675
:100BE0000C9472060E94640638F00E946B0620F096
:100BF000952311F00C945B060C94610611240C945F
:100C0000E3050E94C00570F3959FC1F3950F50E076
:100C1000551F629FF001729FBB27F00DB11D639FAE
:100C2000AA27F00DB11DAA1F649F6627B00DA11D54
:100C3000661F829F2227B00DA11D621F739FB00DFA
:100C4000A11D621F839FA00D611D221F749F33276A
:100C5000A00D611D231F849F600D211D822F762F03
:100C60006A2F11249F5750409AF0F1F088234AF0E0
:100C7000EE0FFF1FBB1F661F771F881F915050404C
:100C8000A9F79E3F510580F00C945B060C94E30598
:100C90005F3FE4F3983ED4F3869577956795B795D3
:100CA000F795E7959F5FC1F7FE2B880F911D9695ED
:100CB000879597F9089597F99F6780E870E060E05D
:100CC00008959FEF80EC089500240A9416161706E5
:100CD00018060906089500240A941216130614062D
:100CE00005060895092E0394000C11F4882352F090
:100CF000BB0F40F4BF2B11F460FF04C06F5F7F4F48
:0A0D00008F4F9F4F0895F894FFCF26
:100D0A00E8030000200300005802000090010000E0
:100D1A00C80000000000000039003600330030002F
:100D2A003B003800350032003A0037003400310009
:100D3A003132334134353642373839432A30234445
:00000001FF
